{
    "_format": "hh-sol-artifact-1",
    "contractName": "NFTMarket",
    "sourceName": "contracts/NFTMarket.sol",
    "abi": [
        {
            "inputs": [],
            "stateMutability": "nonpayable",
            "type": "constructor"
        },
        {
            "anonymous": false,
            "inputs": [
                {
                    "indexed": true,
                    "internalType": "address",
                    "name": "owner",
                    "type": "address"
                },
                {
                    "indexed": true,
                    "internalType": "address",
                    "name": "approved",
                    "type": "address"
                },
                {
                    "indexed": true,
                    "internalType": "uint256",
                    "name": "tokenId",
                    "type": "uint256"
                }
            ],
            "name": "Approval",
            "type": "event"
        },
        {
            "anonymous": false,
            "inputs": [
                {
                    "indexed": true,
                    "internalType": "address",
                    "name": "owner",
                    "type": "address"
                },
                {
                    "indexed": true,
                    "internalType": "address",
                    "name": "operator",
                    "type": "address"
                },
                {
                    "indexed": false,
                    "internalType": "bool",
                    "name": "approved",
                    "type": "bool"
                }
            ],
            "name": "ApprovalForAll",
            "type": "event"
        },
        {
            "anonymous": false,
            "inputs": [
                {
                    "indexed": true,
                    "internalType": "uint256",
                    "name": "tokenId",
                    "type": "uint256"
                },
                {
                    "indexed": false,
                    "internalType": "address",
                    "name": "seller",
                    "type": "address"
                },
                {
                    "indexed": false,
                    "internalType": "address",
                    "name": "owner",
                    "type": "address"
                },
                {
                    "indexed": false,
                    "internalType": "uint256",
                    "name": "price",
                    "type": "uint256"
                },
                {
                    "indexed": false,
                    "internalType": "bool",
                    "name": "sold",
                    "type": "bool"
                }
            ],
            "name": "MarketItemCreated",
            "type": "event"
        },
        {
            "anonymous": false,
            "inputs": [
                {
                    "indexed": true,
                    "internalType": "address",
                    "name": "from",
                    "type": "address"
                },
                {
                    "indexed": true,
                    "internalType": "address",
                    "name": "to",
                    "type": "address"
                },
                {
                    "indexed": true,
                    "internalType": "uint256",
                    "name": "tokenId",
                    "type": "uint256"
                }
            ],
            "name": "Transfer",
            "type": "event"
        },
        {
            "inputs": [
                {
                    "internalType": "address",
                    "name": "to",
                    "type": "address"
                },
                {
                    "internalType": "uint256",
                    "name": "tokenId",
                    "type": "uint256"
                }
            ],
            "name": "approve",
            "outputs": [],
            "stateMutability": "nonpayable",
            "type": "function"
        },
        {
            "inputs": [
                {
                    "internalType": "address",
                    "name": "owner",
                    "type": "address"
                }
            ],
            "name": "balanceOf",
            "outputs": [
                {
                    "internalType": "uint256",
                    "name": "",
                    "type": "uint256"
                }
            ],
            "stateMutability": "view",
            "type": "function"
        },
        {
            "inputs": [
                {
                    "internalType": "uint256",
                    "name": "tokenId",
                    "type": "uint256"
                },
                {
                    "internalType": "uint256",
                    "name": "price",
                    "type": "uint256"
                }
            ],
            "name": "createMarketItem",
            "outputs": [],
            "stateMutability": "payable",
            "type": "function"
        },
        {
            "inputs": [
                {
                    "internalType": "uint256",
                    "name": "tokenId",
                    "type": "uint256"
                }
            ],
            "name": "createMarketSale",
            "outputs": [],
            "stateMutability": "payable",
            "type": "function"
        },
        {
            "inputs": [
                {
                    "internalType": "string",
                    "name": "tokenURI",
                    "type": "string"
                },
                {
                    "internalType": "uint256",
                    "name": "price",
                    "type": "uint256"
                }
            ],
            "name": "createToken",
            "outputs": [
                {
                    "internalType": "uint256",
                    "name": "",
                    "type": "uint256"
                }
            ],
            "stateMutability": "payable",
            "type": "function"
        },
        {
            "inputs": [],
            "name": "fetchItemsListed",
            "outputs": [
                {
                    "components": [
                        {
                            "internalType": "uint256",
                            "name": "tokenId",
                            "type": "uint256"
                        },
                        {
                            "internalType": "address payable",
                            "name": "seller",
                            "type": "address"
                        },
                        {
                            "internalType": "address payable",
                            "name": "owner",
                            "type": "address"
                        },
                        {
                            "internalType": "uint256",
                            "name": "price",
                            "type": "uint256"
                        },
                        {
                            "internalType": "bool",
                            "name": "sold",
                            "type": "bool"
                        }
                    ],
                    "internalType": "struct NFTMarket.MarketItem[]",
                    "name": "",
                    "type": "tuple[]"
                }
            ],
            "stateMutability": "view",
            "type": "function"
        },
        {
            "inputs": [],
            "name": "fetchMarketItems",
            "outputs": [
                {
                    "components": [
                        {
                            "internalType": "uint256",
                            "name": "tokenId",
                            "type": "uint256"
                        },
                        {
                            "internalType": "address payable",
                            "name": "seller",
                            "type": "address"
                        },
                        {
                            "internalType": "address payable",
                            "name": "owner",
                            "type": "address"
                        },
                        {
                            "internalType": "uint256",
                            "name": "price",
                            "type": "uint256"
                        },
                        {
                            "internalType": "bool",
                            "name": "sold",
                            "type": "bool"
                        }
                    ],
                    "internalType": "struct NFTMarket.MarketItem[]",
                    "name": "",
                    "type": "tuple[]"
                }
            ],
            "stateMutability": "view",
            "type": "function"
        },
        {
            "inputs": [],
            "name": "fetchMyNfts",
            "outputs": [
                {
                    "components": [
                        {
                            "internalType": "uint256",
                            "name": "tokenId",
                            "type": "uint256"
                        },
                        {
                            "internalType": "address payable",
                            "name": "seller",
                            "type": "address"
                        },
                        {
                            "internalType": "address payable",
                            "name": "owner",
                            "type": "address"
                        },
                        {
                            "internalType": "uint256",
                            "name": "price",
                            "type": "uint256"
                        },
                        {
                            "internalType": "bool",
                            "name": "sold",
                            "type": "bool"
                        }
                    ],
                    "internalType": "struct NFTMarket.MarketItem[]",
                    "name": "",
                    "type": "tuple[]"
                }
            ],
            "stateMutability": "view",
            "type": "function"
        },
        {
            "inputs": [
                {
                    "internalType": "uint256",
                    "name": "tokenId",
                    "type": "uint256"
                }
            ],
            "name": "getApproved",
            "outputs": [
                {
                    "internalType": "address",
                    "name": "",
                    "type": "address"
                }
            ],
            "stateMutability": "view",
            "type": "function"
        },
        {
            "inputs": [],
            "name": "getListingPrice",
            "outputs": [
                {
                    "internalType": "uint256",
                    "name": "",
                    "type": "uint256"
                }
            ],
            "stateMutability": "view",
            "type": "function"
        },
        {
            "inputs": [
                {
                    "internalType": "address",
                    "name": "owner",
                    "type": "address"
                },
                {
                    "internalType": "address",
                    "name": "operator",
                    "type": "address"
                }
            ],
            "name": "isApprovedForAll",
            "outputs": [
                {
                    "internalType": "bool",
                    "name": "",
                    "type": "bool"
                }
            ],
            "stateMutability": "view",
            "type": "function"
        },
        {
            "inputs": [],
            "name": "name",
            "outputs": [
                {
                    "internalType": "string",
                    "name": "",
                    "type": "string"
                }
            ],
            "stateMutability": "view",
            "type": "function"
        },
        {
            "inputs": [
                {
                    "internalType": "uint256",
                    "name": "tokenId",
                    "type": "uint256"
                }
            ],
            "name": "ownerOf",
            "outputs": [
                {
                    "internalType": "address",
                    "name": "",
                    "type": "address"
                }
            ],
            "stateMutability": "view",
            "type": "function"
        },
        {
            "inputs": [
                {
                    "internalType": "uint256",
                    "name": "tokenId",
                    "type": "uint256"
                },
                {
                    "internalType": "uint256",
                    "name": "price",
                    "type": "uint256"
                }
            ],
            "name": "resellToken",
            "outputs": [],
            "stateMutability": "payable",
            "type": "function"
        },
        {
            "inputs": [
                {
                    "internalType": "address",
                    "name": "from",
                    "type": "address"
                },
                {
                    "internalType": "address",
                    "name": "to",
                    "type": "address"
                },
                {
                    "internalType": "uint256",
                    "name": "tokenId",
                    "type": "uint256"
                }
            ],
            "name": "safeTransferFrom",
            "outputs": [],
            "stateMutability": "nonpayable",
            "type": "function"
        },
        {
            "inputs": [
                {
                    "internalType": "address",
                    "name": "from",
                    "type": "address"
                },
                {
                    "internalType": "address",
                    "name": "to",
                    "type": "address"
                },
                {
                    "internalType": "uint256",
                    "name": "tokenId",
                    "type": "uint256"
                },
                {
                    "internalType": "bytes",
                    "name": "_data",
                    "type": "bytes"
                }
            ],
            "name": "safeTransferFrom",
            "outputs": [],
            "stateMutability": "nonpayable",
            "type": "function"
        },
        {
            "inputs": [
                {
                    "internalType": "address",
                    "name": "operator",
                    "type": "address"
                },
                {
                    "internalType": "bool",
                    "name": "approved",
                    "type": "bool"
                }
            ],
            "name": "setApprovalForAll",
            "outputs": [],
            "stateMutability": "nonpayable",
            "type": "function"
        },
        {
            "inputs": [
                {
                    "internalType": "bytes4",
                    "name": "interfaceId",
                    "type": "bytes4"
                }
            ],
            "name": "supportsInterface",
            "outputs": [
                {
                    "internalType": "bool",
                    "name": "",
                    "type": "bool"
                }
            ],
            "stateMutability": "view",
            "type": "function"
        },
        {
            "inputs": [],
            "name": "symbol",
            "outputs": [
                {
                    "internalType": "string",
                    "name": "",
                    "type": "string"
                }
            ],
            "stateMutability": "view",
            "type": "function"
        },
        {
            "inputs": [
                {
                    "internalType": "uint256",
                    "name": "tokenId",
                    "type": "uint256"
                }
            ],
            "name": "tokenURI",
            "outputs": [
                {
                    "internalType": "string",
                    "name": "",
                    "type": "string"
                }
            ],
            "stateMutability": "view",
            "type": "function"
        },
        {
            "inputs": [
                {
                    "internalType": "address",
                    "name": "from",
                    "type": "address"
                },
                {
                    "internalType": "address",
                    "name": "to",
                    "type": "address"
                },
                {
                    "internalType": "uint256",
                    "name": "tokenId",
                    "type": "uint256"
                }
            ],
            "name": "transferFrom",
            "outputs": [],
            "stateMutability": "nonpayable",
            "type": "function"
        },
        {
            "inputs": [
                {
                    "internalType": "uint256",
                    "name": "_listingPrice",
                    "type": "uint256"
                }
            ],
            "name": "updateListingPrice",
            "outputs": [],
            "stateMutability": "payable",
            "type": "function"
        }
    ],
    "bytecode": "0x60806040526658d15e17628000600b553480156200001c57600080fd5b506040518060400160405280601081526020017f4d657461766572736520546f6b656e73000000000000000000000000000000008152506040518060400160405280600481526020017f4d4554540000000000000000000000000000000000000000000000000000000081525060016000819055508160019080519060200190620000a99291906200010c565b508060029080519060200190620000c29291906200010c565b50505033600a60006101000a81548173ffffffffffffffffffffffffffffffffffffffff021916908373ffffffffffffffffffffffffffffffffffffffff16021790555062000221565b8280546200011a90620001bc565b90600052602060002090601f0160209004810192826200013e57600085556200018a565b82601f106200015957805160ff19168380011785556200018a565b828001600101855582156200018a579182015b82811115620001895782518255916020019190600101906200016c565b5b5090506200019991906200019d565b5090565b5b80821115620001b85760008160009055506001016200019e565b5090565b60006002820490506001821680620001d557607f821691505b60208210811415620001ec57620001eb620001f2565b5b50919050565b7f4e487b7100000000000000000000000000000000000000000000000000000000600052602260045260246000fd5b61450d80620002316000396000f3fe6080604052600436106101355760003560e01c80636352211e116100ab578063ae677aa31161006f578063ae677aa314610420578063b88d4fde1461043c578063be9af53614610465578063c87b56dd14610481578063e219fc75146104be578063e985e9c5146104da57610135565b80636352211e1461032257806370a082311461035f57806372b3b6201461039c57806395d89b41146103cc578063a22cb465146103f757610135565b8063128ae712116100fd578063128ae7121461023357806312e855851461025e57806323b872dd14610289578063361c1995146102b257806342842e0e146102ce57806345f8fa80146102f757610135565b806301ffc9a71461013a57806306fdde0314610177578063081812fc146101a2578063095ea7b3146101df5780630f08efe014610208575b600080fd5b34801561014657600080fd5b50610161600480360381019061015c9190612f75565b610517565b60405161016e9190613695565b60405180910390f35b34801561018357600080fd5b5061018c6105f9565b60405161019991906136b0565b60405180910390f35b3480156101ae57600080fd5b506101c960048036038101906101c4919061301b565b61068b565b6040516101d691906135c7565b60405180910390f35b3480156101eb57600080fd5b5061020660048036038101906102019190612f39565b610710565b005b34801561021457600080fd5b5061021d610828565b60405161022a9190613673565b60405180910390f35b34801561023f57600080fd5b50610248610add565b6040516102559190613673565b60405180910390f35b34801561026a57600080fd5b50610273610e17565b60405161028091906139d2565b60405180910390f35b34801561029557600080fd5b506102b060048036038101906102ab9190612e33565b610e21565b005b6102cc60048036038101906102c79190613044565b610e81565b005b3480156102da57600080fd5b506102f560048036038101906102f09190612e33565b6110da565b005b34801561030357600080fd5b5061030c6110fa565b6040516103199190613673565b60405180910390f35b34801561032e57600080fd5b506103496004803603810190610344919061301b565b611434565b60405161035691906135c7565b60405180910390f35b34801561036b57600080fd5b5061038660048036038101906103819190612dce565b6114e6565b60405161039391906139d2565b60405180910390f35b6103b660048036038101906103b19190612fc7565b61159e565b6040516103c391906139d2565b60405180910390f35b3480156103d857600080fd5b506103e16115e0565b6040516103ee91906136b0565b60405180910390f35b34801561040357600080fd5b5061041e60048036038101906104199190612efd565b611672565b005b61043a6004803603810190610435919061301b565b611688565b005b34801561044857600080fd5b50610463600480360381019061045e9190612e82565b611722565b005b61047f600480360381019061047a919061301b565b611784565b005b34801561048d57600080fd5b506104a860048036038101906104a3919061301b565b611a18565b6040516104b591906136b0565b60405180910390f35b6104d860048036038101906104d39190613044565b611b6a565b005b3480156104e657600080fd5b5061050160048036038101906104fc9190612df7565b611d5f565b60405161050e9190613695565b60405180910390f35b60007f80ac58cd000000000000000000000000000000000000000000000000000000007bffffffffffffffffffffffffffffffffffffffffffffffffffffffff1916827bffffffffffffffffffffffffffffffffffffffffffffffffffffffff191614806105e257507f5b5e139f000000000000000000000000000000000000000000000000000000007bffffffffffffffffffffffffffffffffffffffffffffffffffffffff1916827bffffffffffffffffffffffffffffffffffffffffffffffffffffffff1916145b806105f257506105f182611df3565b5b9050919050565b60606001805461060890613c73565b80601f016020809104026020016040519081016040528092919081815260200182805461063490613c73565b80156106815780601f1061065657610100808354040283529160200191610681565b820191906000526020600020905b81548152906001019060200180831161066457829003601f168201915b5050505050905090565b600061069682611e5d565b6106d5576040517f08c379a00000000000000000000000000000000000000000000000000000000081526004016106cc906138f2565b60405180910390fd5b6005600083815260200190815260200160002060009054906101000a900473ffffffffffffffffffffffffffffffffffffffff169050919050565b600061071b82611434565b90508073ffffffffffffffffffffffffffffffffffffffff168373ffffffffffffffffffffffffffffffffffffffff16141561078c576040517f08c379a000000000000000000000000000000000000000000000000000000000815260040161078390613932565b60405180910390fd5b8073ffffffffffffffffffffffffffffffffffffffff166107ab611ec9565b73ffffffffffffffffffffffffffffffffffffffff1614806107da57506107d9816107d4611ec9565b611d5f565b5b610819576040517f08c379a000000000000000000000000000000000000000000000000000000000815260040161081090613812565b60405180910390fd5b6108238383611ed1565b505050565b606060006108366008611f8a565b905060006108446009611f8a565b61084e6008611f8a565b6108589190613b77565b90506000808267ffffffffffffffff81111561089d577f4e487b7100000000000000000000000000000000000000000000000000000000600052604160045260246000fd5b6040519080825280602002602001820160405280156108d657816020015b6108c3612b95565b8152602001906001900390816108bb5790505b50905060005b84811015610ad2573073ffffffffffffffffffffffffffffffffffffffff16600c600060018461090c9190613af0565b815260200190815260200160002060020160009054906101000a900473ffffffffffffffffffffffffffffffffffffffff1673ffffffffffffffffffffffffffffffffffffffff161415610abf5760006001826109699190613af0565b90506000600c60008381526020019081526020016000209050806040518060a0016040529081600082015481526020016001820160009054906101000a900473ffffffffffffffffffffffffffffffffffffffff1673ffffffffffffffffffffffffffffffffffffffff1673ffffffffffffffffffffffffffffffffffffffff1681526020016002820160009054906101000a900473ffffffffffffffffffffffffffffffffffffffff1673ffffffffffffffffffffffffffffffffffffffff1673ffffffffffffffffffffffffffffffffffffffff168152602001600382015481526020016004820160009054906101000a900460ff161515151581525050848681518110610aa2577f4e487b7100000000000000000000000000000000000000000000000000000000600052603260045260246000fd5b6020026020010181905250600185610aba9190613af0565b945050505b8080610aca90613cd6565b9150506108dc565b508094505050505090565b60606000610aeb6008611f8a565b905060008060005b83811015610b94573373ffffffffffffffffffffffffffffffffffffffff16600c6000600184610b239190613af0565b815260200190815260200160002060020160009054906101000a900473ffffffffffffffffffffffffffffffffffffffff1673ffffffffffffffffffffffffffffffffffffffff161415610b8157600183610b7e9190613af0565b92505b8080610b8c90613cd6565b915050610af3565b5060008267ffffffffffffffff811115610bd7577f4e487b7100000000000000000000000000000000000000000000000000000000600052604160045260246000fd5b604051908082528060200260200182016040528015610c1057816020015b610bfd612b95565b815260200190600190039081610bf55790505b50905060005b84811015610e0c573373ffffffffffffffffffffffffffffffffffffffff16600c6000600184610c469190613af0565b815260200190815260200160002060020160009054906101000a900473ffffffffffffffffffffffffffffffffffffffff1673ffffffffffffffffffffffffffffffffffffffff161415610df9576000600182610ca39190613af0565b90506000600c60008381526020019081526020016000209050806040518060a0016040529081600082015481526020016001820160009054906101000a900473ffffffffffffffffffffffffffffffffffffffff1673ffffffffffffffffffffffffffffffffffffffff1673ffffffffffffffffffffffffffffffffffffffff1681526020016002820160009054906101000a900473ffffffffffffffffffffffffffffffffffffffff1673ffffffffffffffffffffffffffffffffffffffff1673ffffffffffffffffffffffffffffffffffffffff168152602001600382015481526020016004820160009054906101000a900460ff161515151581525050848681518110610ddc577f4e487b7100000000000000000000000000000000000000000000000000000000600052603260045260246000fd5b6020026020010181905250600185610df49190613af0565b945050505b8080610e0490613cd6565b915050610c16565b508094505050505090565b6000600b54905090565b610e32610e2c611ec9565b82611f98565b610e71576040517f08c379a0000000000000000000000000000000000000000000000000000000008152600401610e6890613972565b60405180910390fd5b610e7c838383612076565b505050565b60026000541415610ec7576040517f08c379a0000000000000000000000000000000000000000000000000000000008152600401610ebe90613992565b60405180910390fd5b600260008190555060008111610f12576040517f08c379a0000000000000000000000000000000000000000000000000000000008152600401610f09906139b2565b60405180910390fd5b600b543414610f56576040517f08c379a0000000000000000000000000000000000000000000000000000000008152600401610f4d90613792565b60405180910390fd5b6040518060a001604052808381526020013373ffffffffffffffffffffffffffffffffffffffff1681526020013073ffffffffffffffffffffffffffffffffffffffff16815260200182815260200160001515815250600c60008481526020019081526020016000206000820151816000015560208201518160010160006101000a81548173ffffffffffffffffffffffffffffffffffffffff021916908373ffffffffffffffffffffffffffffffffffffffff16021790555060408201518160020160006101000a81548173ffffffffffffffffffffffffffffffffffffffff021916908373ffffffffffffffffffffffffffffffffffffffff1602179055506060820151816003015560808201518160040160006101000a81548160ff02191690831515021790555090505061108f333084612076565b817fb640004f1d14576d0c209e240cad0410e0d8c0c33a09375861fbadae2588a98d33308460006040516110c694939291906135e2565b60405180910390a260016000819055505050565b6110f583838360405180602001604052806000815250611722565b505050565b606060006111086008611f8a565b905060008060005b838110156111b1573373ffffffffffffffffffffffffffffffffffffffff16600c60006001846111409190613af0565b815260200190815260200160002060010160009054906101000a900473ffffffffffffffffffffffffffffffffffffffff1673ffffffffffffffffffffffffffffffffffffffff16141561119e5760018361119b9190613af0565b92505b80806111a990613cd6565b915050611110565b5060008267ffffffffffffffff8111156111f4577f4e487b7100000000000000000000000000000000000000000000000000000000600052604160045260246000fd5b60405190808252806020026020018201604052801561122d57816020015b61121a612b95565b8152602001906001900390816112125790505b50905060005b84811015611429573373ffffffffffffffffffffffffffffffffffffffff16600c60006001846112639190613af0565b815260200190815260200160002060010160009054906101000a900473ffffffffffffffffffffffffffffffffffffffff1673ffffffffffffffffffffffffffffffffffffffff1614156114165760006001826112c09190613af0565b90506000600c60008381526020019081526020016000209050806040518060a0016040529081600082015481526020016001820160009054906101000a900473ffffffffffffffffffffffffffffffffffffffff1673ffffffffffffffffffffffffffffffffffffffff1673ffffffffffffffffffffffffffffffffffffffff1681526020016002820160009054906101000a900473ffffffffffffffffffffffffffffffffffffffff1673ffffffffffffffffffffffffffffffffffffffff1673ffffffffffffffffffffffffffffffffffffffff168152602001600382015481526020016004820160009054906101000a900460ff1615151515815250508486815181106113f9577f4e487b7100000000000000000000000000000000000000000000000000000000600052603260045260246000fd5b60200260200101819052506001856114119190613af0565b945050505b808061142190613cd6565b915050611233565b508094505050505090565b6000806003600084815260200190815260200160002060009054906101000a900473ffffffffffffffffffffffffffffffffffffffff169050600073ffffffffffffffffffffffffffffffffffffffff168173ffffffffffffffffffffffffffffffffffffffff1614156114dd576040517f08c379a00000000000000000000000000000000000000000000000000000000081526004016114d490613852565b60405180910390fd5b80915050919050565b60008073ffffffffffffffffffffffffffffffffffffffff168273ffffffffffffffffffffffffffffffffffffffff161415611557576040517f08c379a000000000000000000000000000000000000000000000000000000000815260040161154e90613832565b60405180910390fd5b600460008373ffffffffffffffffffffffffffffffffffffffff1673ffffffffffffffffffffffffffffffffffffffff168152602001908152602001600020549050919050565b60006115aa60086122dd565b60006115b66008611f8a565b90506115c233826122f3565b6115cc81856124cd565b6115d68184610e81565b8091505092915050565b6060600280546115ef90613c73565b80601f016020809104026020016040519081016040528092919081815260200182805461161b90613c73565b80156116685780601f1061163d57610100808354040283529160200191611668565b820191906000526020600020905b81548152906001019060200180831161164b57829003601f168201915b5050505050905090565b61168461167d611ec9565b8383612541565b5050565b3373ffffffffffffffffffffffffffffffffffffffff16600a60009054906101000a900473ffffffffffffffffffffffffffffffffffffffff1673ffffffffffffffffffffffffffffffffffffffff1614611718576040517f08c379a000000000000000000000000000000000000000000000000000000000815260040161170f90613732565b60405180910390fd5b80600b8190555050565b61173361172d611ec9565b83611f98565b611772576040517f08c379a000000000000000000000000000000000000000000000000000000000815260040161176990613972565b60405180910390fd5b61177e848484846126ae565b50505050565b600260005414156117ca576040517f08c379a00000000000000000000000000000000000000000000000000000000081526004016117c190613992565b60405180910390fd5b60026000819055506000600c60008381526020019081526020016000206003015490506000600c600084815260200190815260200160002060010160009054906101000a900473ffffffffffffffffffffffffffffffffffffffff16905081341461186a576040517f08c379a000000000000000000000000000000000000000000000000000000000815260040161186190613892565b60405180910390fd5b33600c600085815260200190815260200160002060020160006101000a81548173ffffffffffffffffffffffffffffffffffffffff021916908373ffffffffffffffffffffffffffffffffffffffff1602179055506001600c600085815260200190815260200160002060040160006101000a81548160ff0219169083151502179055506000600c600085815260200190815260200160002060010160006101000a81548173ffffffffffffffffffffffffffffffffffffffff021916908373ffffffffffffffffffffffffffffffffffffffff16021790555061194e60096122dd565b611959303385612076565b600a60009054906101000a900473ffffffffffffffffffffffffffffffffffffffff1673ffffffffffffffffffffffffffffffffffffffff166108fc600b549081150290604051600060405180830381858888f193505050501580156119c3573d6000803e3d6000fd5b508073ffffffffffffffffffffffffffffffffffffffff166108fc349081150290604051600060405180830381858888f19350505050158015611a0a573d6000803e3d6000fd5b505050600160008190555050565b6060611a2382611e5d565b611a62576040517f08c379a0000000000000000000000000000000000000000000000000000000008152600401611a59906138d2565b60405180910390fd5b6000600760008481526020019081526020016000208054611a8290613c73565b80601f0160208091040260200160405190810160405280929190818152602001828054611aae90613c73565b8015611afb5780601f10611ad057610100808354040283529160200191611afb565b820191906000526020600020905b815481529060010190602001808311611ade57829003601f168201915b505050505090506000611b0c61270a565b9050600081511415611b22578192505050611b65565b600082511115611b57578082604051602001611b3f9291906135a3565b60405160208183030381529060405292505050611b65565b611b6084612721565b925050505b919050565b3373ffffffffffffffffffffffffffffffffffffffff16600c600084815260200190815260200160002060020160009054906101000a900473ffffffffffffffffffffffffffffffffffffffff1673ffffffffffffffffffffffffffffffffffffffff1614611c0e576040517f08c379a0000000000000000000000000000000000000000000000000000000008152600401611c0590613772565b60405180910390fd5b600b543414611c52576040517f08c379a0000000000000000000000000000000000000000000000000000000008152600401611c4990613952565b60405180910390fd5b6000600c600084815260200190815260200160002060040160006101000a81548160ff02191690831515021790555080600c60008481526020019081526020016000206003018190555033600c600084815260200190815260200160002060010160006101000a81548173ffffffffffffffffffffffffffffffffffffffff021916908373ffffffffffffffffffffffffffffffffffffffff16021790555030600c600084815260200190815260200160002060020160006101000a81548173ffffffffffffffffffffffffffffffffffffffff021916908373ffffffffffffffffffffffffffffffffffffffff160217905550611d5060096127c8565b611d5b333084612076565b5050565b6000600660008473ffffffffffffffffffffffffffffffffffffffff1673ffffffffffffffffffffffffffffffffffffffff16815260200190815260200160002060008373ffffffffffffffffffffffffffffffffffffffff1673ffffffffffffffffffffffffffffffffffffffff16815260200190815260200160002060009054906101000a900460ff16905092915050565b60007f01ffc9a7000000000000000000000000000000000000000000000000000000007bffffffffffffffffffffffffffffffffffffffffffffffffffffffff1916827bffffffffffffffffffffffffffffffffffffffffffffffffffffffff1916149050919050565b60008073ffffffffffffffffffffffffffffffffffffffff166003600084815260200190815260200160002060009054906101000a900473ffffffffffffffffffffffffffffffffffffffff1673ffffffffffffffffffffffffffffffffffffffff1614159050919050565b600033905090565b816005600083815260200190815260200160002060006101000a81548173ffffffffffffffffffffffffffffffffffffffff021916908373ffffffffffffffffffffffffffffffffffffffff160217905550808273ffffffffffffffffffffffffffffffffffffffff16611f4483611434565b73ffffffffffffffffffffffffffffffffffffffff167f8c5be1e5ebec7d5bd14f71427d1e84f3dd0314c0f7b2291e5b200ac8c7c3b92560405160405180910390a45050565b600081600001549050919050565b6000611fa382611e5d565b611fe2576040517f08c379a0000000000000000000000000000000000000000000000000000000008152600401611fd9906137f2565b60405180910390fd5b6000611fed83611434565b90508073ffffffffffffffffffffffffffffffffffffffff168473ffffffffffffffffffffffffffffffffffffffff16148061205c57508373ffffffffffffffffffffffffffffffffffffffff166120448461068b565b73ffffffffffffffffffffffffffffffffffffffff16145b8061206d575061206c8185611d5f565b5b91505092915050565b8273ffffffffffffffffffffffffffffffffffffffff1661209682611434565b73ffffffffffffffffffffffffffffffffffffffff16146120ec576040517f08c379a00000000000000000000000000000000000000000000000000000000081526004016120e390613712565b60405180910390fd5b600073ffffffffffffffffffffffffffffffffffffffff168273ffffffffffffffffffffffffffffffffffffffff16141561215c576040517f08c379a0000000000000000000000000000000000000000000000000000000008152600401612153906137b2565b60405180910390fd5b612167838383612824565b612172600082611ed1565b6001600460008573ffffffffffffffffffffffffffffffffffffffff1673ffffffffffffffffffffffffffffffffffffffff16815260200190815260200160002060008282546121c29190613b77565b925050819055506001600460008473ffffffffffffffffffffffffffffffffffffffff1673ffffffffffffffffffffffffffffffffffffffff16815260200190815260200160002060008282546122199190613af0565b92505081905550816003600083815260200190815260200160002060006101000a81548173ffffffffffffffffffffffffffffffffffffffff021916908373ffffffffffffffffffffffffffffffffffffffff160217905550808273ffffffffffffffffffffffffffffffffffffffff168473ffffffffffffffffffffffffffffffffffffffff167fddf252ad1be2c89b69c2b068fc378daa952ba7f163c4a11628f55a4df523b3ef60405160405180910390a46122d8838383612829565b505050565b6001816000016000828254019250508190555050565b600073ffffffffffffffffffffffffffffffffffffffff168273ffffffffffffffffffffffffffffffffffffffff161415612363576040517f08c379a000000000000000000000000000000000000000000000000000000000815260040161235a906138b2565b60405180910390fd5b61236c81611e5d565b156123ac576040517f08c379a00000000000000000000000000000000000000000000000000000000081526004016123a390613752565b60405180910390fd5b6123b860008383612824565b6001600460008473ffffffffffffffffffffffffffffffffffffffff1673ffffffffffffffffffffffffffffffffffffffff16815260200190815260200160002060008282546124089190613af0565b92505081905550816003600083815260200190815260200160002060006101000a81548173ffffffffffffffffffffffffffffffffffffffff021916908373ffffffffffffffffffffffffffffffffffffffff160217905550808273ffffffffffffffffffffffffffffffffffffffff16600073ffffffffffffffffffffffffffffffffffffffff167fddf252ad1be2c89b69c2b068fc378daa952ba7f163c4a11628f55a4df523b3ef60405160405180910390a46124c960008383612829565b5050565b6124d682611e5d565b612515576040517f08c379a000000000000000000000000000000000000000000000000000000000815260040161250c90613872565b60405180910390fd5b8060076000848152602001908152602001600020908051906020019061253c929190612bf2565b505050565b8173ffffffffffffffffffffffffffffffffffffffff168373ffffffffffffffffffffffffffffffffffffffff1614156125b0576040517f08c379a00000000000000000000000000000000000000000000000000000000081526004016125a7906137d2565b60405180910390fd5b80600660008573ffffffffffffffffffffffffffffffffffffffff1673ffffffffffffffffffffffffffffffffffffffff16815260200190815260200160002060008473ffffffffffffffffffffffffffffffffffffffff1673ffffffffffffffffffffffffffffffffffffffff16815260200190815260200160002060006101000a81548160ff0219169083151502179055508173ffffffffffffffffffffffffffffffffffffffff168373ffffffffffffffffffffffffffffffffffffffff167f17307eab39ab6107e8899845ad3d59bd9653f200f220920489ca2b5937696c31836040516126a19190613695565b60405180910390a3505050565b6126b9848484612076565b6126c58484848461282e565b612704576040517f08c379a00000000000000000000000000000000000000000000000000000000081526004016126fb906136f2565b60405180910390fd5b50505050565b606060405180602001604052806000815250905090565b606061272c82611e5d565b61276b576040517f08c379a000000000000000000000000000000000000000000000000000000000815260040161276290613912565b60405180910390fd5b600061277561270a565b9050600081511161279557604051806020016040528060008152506127c0565b8061279f846129c5565b6040516020016127b09291906135a3565b6040516020818303038152906040525b915050919050565b60008160000154905060008111612814576040517f08c379a000000000000000000000000000000000000000000000000000000000815260040161280b906136d2565b60405180910390fd5b6001810382600001819055505050565b505050565b505050565b600061284f8473ffffffffffffffffffffffffffffffffffffffff16612b72565b156129b8578373ffffffffffffffffffffffffffffffffffffffff1663150b7a02612878611ec9565b8786866040518563ffffffff1660e01b815260040161289a9493929190613627565b602060405180830381600087803b1580156128b457600080fd5b505af19250505080156128e557506040513d601f19601f820116820180604052508101906128e29190612f9e565b60015b612968573d8060008114612915576040519150601f19603f3d011682016040523d82523d6000602084013e61291a565b606091505b50600081511415612960576040517f08c379a0000000000000000000000000000000000000000000000000000000008152600401612957906136f2565b60405180910390fd5b805181602001fd5b63150b7a0260e01b7bffffffffffffffffffffffffffffffffffffffffffffffffffffffff1916817bffffffffffffffffffffffffffffffffffffffffffffffffffffffff1916149150506129bd565b600190505b949350505050565b60606000821415612a0d576040518060400160405280600181526020017f30000000000000000000000000000000000000000000000000000000000000008152509050612b6d565b600082905060005b60008214612a3f578080612a2890613cd6565b915050600a82612a389190613b46565b9150612a15565b60008167ffffffffffffffff811115612a81577f4e487b7100000000000000000000000000000000000000000000000000000000600052604160045260246000fd5b6040519080825280601f01601f191660200182016040528015612ab35781602001600182028036833780820191505090505b5090505b60008514612b6657600182612acc9190613b77565b9150600a85612adb9190613d1f565b6030612ae79190613af0565b60f81b818381518110612b23577f4e487b7100000000000000000000000000000000000000000000000000000000600052603260045260246000fd5b60200101907effffffffffffffffffffffffffffffffffffffffffffffffffffffffffffff1916908160001a905350600a85612b5f9190613b46565b9450612ab7565b8093505050505b919050565b6000808273ffffffffffffffffffffffffffffffffffffffff163b119050919050565b6040518060a0016040528060008152602001600073ffffffffffffffffffffffffffffffffffffffff168152602001600073ffffffffffffffffffffffffffffffffffffffff168152602001600081526020016000151581525090565b828054612bfe90613c73565b90600052602060002090601f016020900481019282612c205760008555612c67565b82601f10612c3957805160ff1916838001178555612c67565b82800160010185558215612c67579182015b82811115612c66578251825591602001919060010190612c4b565b5b509050612c749190612c78565b5090565b5b80821115612c91576000816000905550600101612c79565b5090565b6000612ca8612ca384613a12565b6139ed565b905082815260208101848484011115612cc057600080fd5b612ccb848285613c31565b509392505050565b6000612ce6612ce184613a43565b6139ed565b905082815260208101848484011115612cfe57600080fd5b612d09848285613c31565b509392505050565b600081359050612d208161447b565b92915050565b600081359050612d3581614492565b92915050565b600081359050612d4a816144a9565b92915050565b600081519050612d5f816144a9565b92915050565b600082601f830112612d7657600080fd5b8135612d86848260208601612c95565b91505092915050565b600082601f830112612da057600080fd5b8135612db0848260208601612cd3565b91505092915050565b600081359050612dc8816144c0565b92915050565b600060208284031215612de057600080fd5b6000612dee84828501612d11565b91505092915050565b60008060408385031215612e0a57600080fd5b6000612e1885828601612d11565b9250506020612e2985828601612d11565b9150509250929050565b600080600060608486031215612e4857600080fd5b6000612e5686828701612d11565b9350506020612e6786828701612d11565b9250506040612e7886828701612db9565b9150509250925092565b60008060008060808587031215612e9857600080fd5b6000612ea687828801612d11565b9450506020612eb787828801612d11565b9350506040612ec887828801612db9565b925050606085013567ffffffffffffffff811115612ee557600080fd5b612ef187828801612d65565b91505092959194509250565b60008060408385031215612f1057600080fd5b6000612f1e85828601612d11565b9250506020612f2f85828601612d26565b9150509250929050565b60008060408385031215612f4c57600080fd5b6000612f5a85828601612d11565b9250506020612f6b85828601612db9565b9150509250929050565b600060208284031215612f8757600080fd5b6000612f9584828501612d3b565b91505092915050565b600060208284031215612fb057600080fd5b6000612fbe84828501612d50565b91505092915050565b60008060408385031215612fda57600080fd5b600083013567ffffffffffffffff811115612ff457600080fd5b61300085828601612d8f565b925050602061301185828601612db9565b9150509250929050565b60006020828403121561302d57600080fd5b600061303b84828501612db9565b91505092915050565b6000806040838503121561305757600080fd5b600061306585828601612db9565b925050602061307685828601612db9565b9150509250929050565b600061308c838361351d565b60a08301905092915050565b6130a181613bbd565b82525050565b6130b081613bab565b82525050565b60006130c182613a84565b6130cb8185613ab2565b93506130d683613a74565b8060005b838110156131075781516130ee8882613080565b97506130f983613aa5565b9250506001810190506130da565b5085935050505092915050565b61311d81613bcf565b82525050565b61312c81613bcf565b82525050565b600061313d82613a8f565b6131478185613ac3565b9350613157818560208601613c40565b61316081613e0c565b840191505092915050565b600061317682613a9a565b6131808185613ad4565b9350613190818560208601613c40565b61319981613e0c565b840191505092915050565b60006131af82613a9a565b6131b98185613ae5565b93506131c9818560208601613c40565b80840191505092915050565b60006131e2601b83613ad4565b91506131ed82613e1d565b602082019050919050565b6000613205603283613ad4565b915061321082613e46565b604082019050919050565b6000613228602583613ad4565b915061323382613e95565b604082019050919050565b600061324b603383613ad4565b915061325682613ee4565b604082019050919050565b600061326e601c83613ad4565b915061327982613f33565b602082019050919050565b6000613291602083613ad4565b915061329c82613f5c565b602082019050919050565b60006132b4602583613ad4565b91506132bf82613f85565b604082019050919050565b60006132d7602483613ad4565b91506132e282613fd4565b604082019050919050565b60006132fa601983613ad4565b915061330582614023565b602082019050919050565b600061331d602c83613ad4565b91506133288261404c565b604082019050919050565b6000613340603883613ad4565b915061334b8261409b565b604082019050919050565b6000613363602a83613ad4565b915061336e826140ea565b604082019050919050565b6000613386602983613ad4565b915061339182614139565b604082019050919050565b60006133a9602e83613ad4565b91506133b482614188565b604082019050919050565b60006133cc604083613ad4565b91506133d7826141d7565b604082019050919050565b60006133ef602083613ad4565b91506133fa82614226565b602082019050919050565b6000613412603183613ad4565b915061341d8261424f565b604082019050919050565b6000613435602c83613ad4565b91506134408261429e565b604082019050919050565b6000613458602f83613ad4565b9150613463826142ed565b604082019050919050565b600061347b602183613ad4565b91506134868261433c565b604082019050919050565b600061349e602483613ad4565b91506134a98261438b565b604082019050919050565b60006134c1603183613ad4565b91506134cc826143da565b604082019050919050565b60006134e4601f83613ad4565b91506134ef82614429565b602082019050919050565b6000613507601c83613ad4565b915061351282614452565b602082019050919050565b60a0820160008201516135336000850182613585565b5060208201516135466020850182613098565b5060408201516135596040850182613098565b50606082015161356c6060850182613585565b50608082015161357f6080850182613114565b50505050565b61358e81613c27565b82525050565b61359d81613c27565b82525050565b60006135af82856131a4565b91506135bb82846131a4565b91508190509392505050565b60006020820190506135dc60008301846130a7565b92915050565b60006080820190506135f760008301876130a7565b61360460208301866130a7565b6136116040830185613594565b61361e6060830184613123565b95945050505050565b600060808201905061363c60008301876130a7565b61364960208301866130a7565b6136566040830185613594565b81810360608301526136688184613132565b905095945050505050565b6000602082019050818103600083015261368d81846130b6565b905092915050565b60006020820190506136aa6000830184613123565b92915050565b600060208201905081810360008301526136ca818461316b565b905092915050565b600060208201905081810360008301526136eb816131d5565b9050919050565b6000602082019050818103600083015261370b816131f8565b9050919050565b6000602082019050818103600083015261372b8161321b565b9050919050565b6000602082019050818103600083015261374b8161323e565b9050919050565b6000602082019050818103600083015261376b81613261565b9050919050565b6000602082019050818103600083015261378b81613284565b9050919050565b600060208201905081810360008301526137ab816132a7565b9050919050565b600060208201905081810360008301526137cb816132ca565b9050919050565b600060208201905081810360008301526137eb816132ed565b9050919050565b6000602082019050818103600083015261380b81613310565b9050919050565b6000602082019050818103600083015261382b81613333565b9050919050565b6000602082019050818103600083015261384b81613356565b9050919050565b6000602082019050818103600083015261386b81613379565b9050919050565b6000602082019050818103600083015261388b8161339c565b9050919050565b600060208201905081810360008301526138ab816133bf565b9050919050565b600060208201905081810360008301526138cb816133e2565b9050919050565b600060208201905081810360008301526138eb81613405565b9050919050565b6000602082019050818103600083015261390b81613428565b9050919050565b6000602082019050818103600083015261392b8161344b565b9050919050565b6000602082019050818103600083015261394b8161346e565b9050919050565b6000602082019050818103600083015261396b81613491565b9050919050565b6000602082019050818103600083015261398b816134b4565b9050919050565b600060208201905081810360008301526139ab816134d7565b9050919050565b600060208201905081810360008301526139cb816134fa565b9050919050565b60006020820190506139e76000830184613594565b92915050565b60006139f7613a08565b9050613a038282613ca5565b919050565b6000604051905090565b600067ffffffffffffffff821115613a2d57613a2c613ddd565b5b613a3682613e0c565b9050602081019050919050565b600067ffffffffffffffff821115613a5e57613a5d613ddd565b5b613a6782613e0c565b9050602081019050919050565b6000819050602082019050919050565b600081519050919050565b600081519050919050565b600081519050919050565b6000602082019050919050565b600082825260208201905092915050565b600082825260208201905092915050565b600082825260208201905092915050565b600081905092915050565b6000613afb82613c27565b9150613b0683613c27565b9250827fffffffffffffffffffffffffffffffffffffffffffffffffffffffffffffffff03821115613b3b57613b3a613d50565b5b828201905092915050565b6000613b5182613c27565b9150613b5c83613c27565b925082613b6c57613b6b613d7f565b5b828204905092915050565b6000613b8282613c27565b9150613b8d83613c27565b925082821015613ba057613b9f613d50565b5b828203905092915050565b6000613bb682613c07565b9050919050565b6000613bc882613c07565b9050919050565b60008115159050919050565b60007fffffffff0000000000000000000000000000000000000000000000000000000082169050919050565b600073ffffffffffffffffffffffffffffffffffffffff82169050919050565b6000819050919050565b82818337600083830152505050565b60005b83811015613c5e578082015181840152602081019050613c43565b83811115613c6d576000848401525b50505050565b60006002820490506001821680613c8b57607f821691505b60208210811415613c9f57613c9e613dae565b5b50919050565b613cae82613e0c565b810181811067ffffffffffffffff82111715613ccd57613ccc613ddd565b5b80604052505050565b6000613ce182613c27565b91507fffffffffffffffffffffffffffffffffffffffffffffffffffffffffffffffff821415613d1457613d13613d50565b5b600182019050919050565b6000613d2a82613c27565b9150613d3583613c27565b925082613d4557613d44613d7f565b5b828206905092915050565b7f4e487b7100000000000000000000000000000000000000000000000000000000600052601160045260246000fd5b7f4e487b7100000000000000000000000000000000000000000000000000000000600052601260045260246000fd5b7f4e487b7100000000000000000000000000000000000000000000000000000000600052602260045260246000fd5b7f4e487b7100000000000000000000000000000000000000000000000000000000600052604160045260246000fd5b6000601f19601f8301169050919050565b7f436f756e7465723a2064656372656d656e74206f766572666c6f770000000000600082015250565b7f4552433732313a207472616e7366657220746f206e6f6e20455243373231526560008201527f63656976657220696d706c656d656e7465720000000000000000000000000000602082015250565b7f4552433732313a207472616e736665722066726f6d20696e636f72726563742060008201527f6f776e6572000000000000000000000000000000000000000000000000000000602082015250565b7f6f6e6c79206d61726b6574706c616365206f776e65722063616e20757064617460008201527f6520746865206c697374696e6720707269636500000000000000000000000000602082015250565b7f4552433732313a20746f6b656e20616c7265616479206d696e74656400000000600082015250565b7f6f6e6c79206974656d206f776e65722063616e20726573656c6c20746f6b656e600082015250565b7f5072696365206d75737420626520657175616c20746f206c697369746e67207060008201527f7269636520000000000000000000000000000000000000000000000000000000602082015250565b7f4552433732313a207472616e7366657220746f20746865207a65726f2061646460008201527f7265737300000000000000000000000000000000000000000000000000000000602082015250565b7f4552433732313a20617070726f766520746f2063616c6c657200000000000000600082015250565b7f4552433732313a206f70657261746f7220717565727920666f72206e6f6e657860008201527f697374656e7420746f6b656e0000000000000000000000000000000000000000602082015250565b7f4552433732313a20617070726f76652063616c6c6572206973206e6f74206f7760008201527f6e6572206e6f7220617070726f76656420666f7220616c6c0000000000000000602082015250565b7f4552433732313a2062616c616e636520717565727920666f7220746865207a6560008201527f726f206164647265737300000000000000000000000000000000000000000000602082015250565b7f4552433732313a206f776e657220717565727920666f72206e6f6e657869737460008201527f656e7420746f6b656e0000000000000000000000000000000000000000000000602082015250565b7f45524337323155524953746f726167653a2055524920736574206f66206e6f6e60008201527f6578697374656e7420746f6b656e000000000000000000000000000000000000602082015250565b7f506c65617365207375626d6974207468652061736b696e67207072696365206960008201527f6e206f7264657220746f20636f6d706c65746520746865207075726368617365602082015250565b7f4552433732313a206d696e7420746f20746865207a65726f2061646472657373600082015250565b7f45524337323155524953746f726167653a2055524920717565727920666f722060008201527f6e6f6e6578697374656e7420746f6b656e000000000000000000000000000000602082015250565b7f4552433732313a20617070726f76656420717565727920666f72206e6f6e657860008201527f697374656e7420746f6b656e0000000000000000000000000000000000000000602082015250565b7f4552433732314d657461646174613a2055524920717565727920666f72206e6f60008201527f6e6578697374656e7420746f6b656e0000000000000000000000000000000000602082015250565b7f4552433732313a20617070726f76616c20746f2063757272656e74206f776e6560008201527f7200000000000000000000000000000000000000000000000000000000000000602082015250565b7f5072696365206d75737420626520657175616c20746f206c697374696e67207060008201527f7269636500000000000000000000000000000000000000000000000000000000602082015250565b7f4552433732313a207472616e736665722063616c6c6572206973206e6f74206f60008201527f776e6572206e6f7220617070726f766564000000000000000000000000000000602082015250565b7f5265656e7472616e637947756172643a207265656e7472616e742063616c6c00600082015250565b7f5072696365206d757374206265206174206c6561737420312077656900000000600082015250565b61448481613bab565b811461448f57600080fd5b50565b61449b81613bcf565b81146144a657600080fd5b50565b6144b281613bdb565b81146144bd57600080fd5b50565b6144c981613c27565b81146144d457600080fd5b5056fea2646970667358221220b52e1eef9175a8689b19c74c40292e2293d4d0b8c04cd50fb8d08cf57974280e64736f6c63430008040033",
    "linkReferences": {},
    "deployedLinkReferences": {}
}